{
  "contractName": "HealthSync",
  "abi": [
    {
      "inputs": [],
      "stateMutability": "nonpayable",
      "type": "constructor"
    },
    {
      "anonymous": false,
      "inputs": [
        {
          "indexed": false,
          "internalType": "uint256",
          "name": "id",
          "type": "uint256"
        },
        {
          "indexed": false,
          "internalType": "string",
          "name": "name",
          "type": "string"
        },
        {
          "indexed": false,
          "internalType": "uint256",
          "name": "price",
          "type": "uint256"
        },
        {
          "indexed": false,
          "internalType": "address payable",
          "name": "owner",
          "type": "address"
        },
        {
          "indexed": false,
          "internalType": "enum HealthSync.HealthStatus",
          "name": "status",
          "type": "uint8"
        }
      ],
      "name": "HealthPurchased",
      "type": "event"
    },
    {
      "inputs": [
        {
          "internalType": "uint256",
          "name": "",
          "type": "uint256"
        }
      ],
      "name": "Healths",
      "outputs": [
        {
          "components": [
            {
              "internalType": "string",
              "name": "id",
              "type": "string"
            },
            {
              "internalType": "string",
              "name": "name",
              "type": "string"
            },
            {
              "internalType": "string",
              "name": "gender",
              "type": "string"
            },
            {
              "internalType": "string",
              "name": "dateOfBirth",
              "type": "string"
            },
            {
              "internalType": "uint256",
              "name": "price",
              "type": "uint256"
            },
            {
              "internalType": "enum HealthSync.HealthStatus",
              "name": "status",
              "type": "uint8"
            }
          ],
          "internalType": "struct HealthSync.HealthInformation",
          "name": "HealthInfo",
          "type": "tuple"
        }
      ],
      "stateMutability": "view",
      "type": "function"
    },
    {
      "inputs": [],
      "name": "companyName",
      "outputs": [
        {
          "internalType": "string",
          "name": "",
          "type": "string"
        }
      ],
      "stateMutability": "view",
      "type": "function"
    },
    {
      "inputs": [],
      "name": "getCompanyName",
      "outputs": [
        {
          "internalType": "string",
          "name": "",
          "type": "string"
        }
      ],
      "stateMutability": "view",
      "type": "function"
    },
    {
      "inputs": [],
      "name": "getNoOfHealth",
      "outputs": [
        {
          "internalType": "uint256",
          "name": "",
          "type": "uint256"
        }
      ],
      "stateMutability": "view",
      "type": "function"
    },
    {
      "inputs": [
        {
          "internalType": "uint256",
          "name": "HealthId",
          "type": "uint256"
        }
      ],
      "name": "getHealthInfo",
      "outputs": [
        {
          "components": [
            {
              "internalType": "string",
              "name": "id",
              "type": "string"
            },
            {
              "internalType": "string",
              "name": "name",
              "type": "string"
            },
            {
              "internalType": "string",
              "name": "gender",
              "type": "string"
            },
            {
              "internalType": "string",
              "name": "dateOfBirth",
              "type": "string"
            },
            {
              "internalType": "uint256",
              "name": "price",
              "type": "uint256"
            },
            {
              "internalType": "enum HealthSync.HealthStatus",
              "name": "status",
              "type": "uint8"
            }
          ],
          "internalType": "struct HealthSync.HealthInformation",
          "name": "",
          "type": "tuple"
        }
      ],
      "stateMutability": "view",
      "type": "function"
    },
    {
      "inputs": [
        {
          "internalType": "uint256",
          "name": "HealthId",
          "type": "uint256"
        }
      ],
      "name": "getOwnershipRecords",
      "outputs": [
        {
          "components": [
            {
              "internalType": "address payable",
              "name": "ownerId",
              "type": "address"
            },
            {
              "internalType": "string",
              "name": "ownerName",
              "type": "string"
            },
            {
              "internalType": "string",
              "name": "transferDate",
              "type": "string"
            },
            {
              "internalType": "string",
              "name": "phone",
              "type": "string"
            },
            {
              "internalType": "string",
              "name": "email",
              "type": "string"
            }
          ],
          "internalType": "struct HealthSync.OwnershipRecord[]",
          "name": "",
          "type": "tuple[]"
        }
      ],
      "stateMutability": "view",
      "type": "function"
    },
    {
      "inputs": [
        {
          "internalType": "uint256",
          "name": "HealthId",
          "type": "uint256"
        }
      ],
      "name": "getVaccinationRecords",
      "outputs": [
        {
          "components": [
            {
              "internalType": "string",
              "name": "vaccineName",
              "type": "string"
            },
            {
              "internalType": "string",
              "name": "dateAdministered",
              "type": "string"
            },
            {
              "internalType": "string",
              "name": "doctorname",
              "type": "string"
            },
            {
              "internalType": "string",
              "name": "clinic",
              "type": "string"
            },
            {
              "internalType": "string",
              "name": "phone",
              "type": "string"
            },
            {
              "internalType": "string",
              "name": "email",
              "type": "string"
            }
          ],
          "internalType": "struct HealthSync.VaccinationRecord[]",
          "name": "",
          "type": "tuple[]"
        }
      ],
      "stateMutability": "view",
      "type": "function"
    },
    {
      "inputs": [
        {
          "internalType": "uint256",
          "name": "HealthId",
          "type": "uint256"
        }
      ],
      "name": "getTrainingRecords",
      "outputs": [
        {
          "components": [
            {
              "internalType": "string",
              "name": "trainingType",
              "type": "string"
            },
            {
              "internalType": "string",
              "name": "traninerName",
              "type": "string"
            },
            {
              "internalType": "string",
              "name": "organization",
              "type": "string"
            },
            {
              "internalType": "string",
              "name": "phone",
              "type": "string"
            },
            {
              "internalType": "string",
              "name": "trainingDate",
              "type": "string"
            },
            {
              "internalType": "string",
              "name": "progress",
              "type": "string"
            }
          ],
          "internalType": "struct HealthSync.TrainingRecord[]",
          "name": "",
          "type": "tuple[]"
        }
      ],
      "stateMutability": "view",
      "type": "function"
    },
    {
      "inputs": [],
      "name": "registerHealth",
      "outputs": [
        {
          "internalType": "uint256",
          "name": "",
          "type": "uint256"
        }
      ],
      "stateMutability": "nonpayable",
      "type": "function"
    },
    {
      "inputs": [
        {
          "internalType": "uint256",
          "name": "HealthId",
          "type": "uint256"
        },
        {
          "internalType": "string",
          "name": "_id",
          "type": "string"
        },
        {
          "internalType": "string",
          "name": "_name",
          "type": "string"
        },
        {
          "internalType": "string",
          "name": "_gender",
          "type": "string"
        },
        {
          "internalType": "string",
          "name": "_dateOfBirth",
          "type": "string"
        },
        {
          "internalType": "uint256",
          "name": "price",
          "type": "uint256"
        }
      ],
      "name": "addHealthInfo",
      "outputs": [],
      "stateMutability": "nonpayable",
      "type": "function"
    },
    {
      "inputs": [
        {
          "internalType": "uint256",
          "name": "HealthId",
          "type": "uint256"
        },
        {
          "internalType": "string",
          "name": "_ownerName",
          "type": "string"
        },
        {
          "internalType": "string",
          "name": "_transferDate",
          "type": "string"
        },
        {
          "internalType": "string",
          "name": "_phone",
          "type": "string"
        },
        {
          "internalType": "string",
          "name": "_email",
          "type": "string"
        }
      ],
      "name": "addOwnerShipRecord",
      "outputs": [],
      "stateMutability": "nonpayable",
      "type": "function"
    },
    {
      "inputs": [
        {
          "internalType": "uint256",
          "name": "HealthId",
          "type": "uint256"
        },
        {
          "internalType": "string",
          "name": "_vaccineName",
          "type": "string"
        },
        {
          "internalType": "string",
          "name": "_dateAdministered",
          "type": "string"
        },
        {
          "internalType": "string",
          "name": "_doctorname",
          "type": "string"
        },
        {
          "internalType": "string",
          "name": "_clinic",
          "type": "string"
        },
        {
          "internalType": "string",
          "name": "_phone",
          "type": "string"
        },
        {
          "internalType": "string",
          "name": "_email",
          "type": "string"
        }
      ],
      "name": "addVaccinationRecord",
      "outputs": [],
      "stateMutability": "nonpayable",
      "type": "function"
    },
    {
      "inputs": [
        {
          "internalType": "uint256",
          "name": "HealthId",
          "type": "uint256"
        },
        {
          "internalType": "string",
          "name": "_trainingType",
          "type": "string"
        },
        {
          "internalType": "string",
          "name": "_trainerName",
          "type": "string"
        },
        {
          "internalType": "string",
          "name": "_organization",
          "type": "string"
        },
        {
          "internalType": "string",
          "name": "_phone",
          "type": "string"
        },
        {
          "internalType": "string",
          "name": "_trainingDate",
          "type": "string"
        },
        {
          "internalType": "string",
          "name": "_progress",
          "type": "string"
        }
      ],
      "name": "addTrainingRecord",
      "outputs": [],
      "stateMutability": "nonpayable",
      "type": "function"
    },
    {
      "inputs": [
        {
          "internalType": "uint256",
          "name": "_id",
          "type": "uint256"
        }
      ],
      "name": "purchaseHealth",
      "outputs": [],
      "stateMutability": "payable",
      "type": "function"
    }
  ],
  "bytecode": "0x60806040523480156200001157600080fd5b5060006001819055506040518060400160405280600a81526020017f4865616c746853796e630000000000000000000000000000000000000000000081525060009081620000609190620002e1565b50620003c8565b600081519050919050565b7f4e487b7100000000000000000000000000000000000000000000000000000000600052604160045260246000fd5b7f4e487b7100000000000000000000000000000000000000000000000000000000600052602260045260246000fd5b60006002820490506001821680620000e957607f821691505b602082108103620000ff57620000fe620000a1565b5b50919050565b60008190508160005260206000209050919050565b60006020601f8301049050919050565b600082821b905092915050565b600060088302620001697fffffffffffffffffffffffffffffffffffffffffffffffffffffffffffffffff826200012a565b6200017586836200012a565b95508019841693508086168417925050509392505050565b6000819050919050565b6000819050919050565b6000620001c2620001bc620001b6846200018d565b62000197565b6200018d565b9050919050565b6000819050919050565b620001de83620001a1565b620001f6620001ed82620001c9565b84845462000137565b825550505050565b600090565b6200020d620001fe565b6200021a818484620001d3565b505050565b5b8181101562000242576200023660008262000203565b60018101905062000220565b5050565b601f82111562000291576200025b8162000105565b62000266846200011a565b8101602085101562000276578190505b6200028e62000285856200011a565b8301826200021f565b50505b505050565b600082821c905092915050565b6000620002b66000198460080262000296565b1980831691505092915050565b6000620002d18383620002a3565b9150826002028217905092915050565b620002ec8262000067565b67ffffffffffffffff81111562000308576200030762000072565b5b620003148254620000d0565b6200032182828562000246565b600060209050601f83116001811462000359576000841562000344578287015190505b620003508582620002c3565b865550620003c0565b601f198416620003698662000105565b60005b8281101562000393578489015182556001820191506020850194506020810190506200036c565b86831015620003b35784890151620003af601f891682620002a3565b8355505b6001600288020188555050505b505050505050565b613a4980620003d86000396000f3fe6080604052600436106100dd5760003560e01c80637639b8301161007f578063c051b45f11610059578063c051b45f146102af578063cae3714b146102ec578063f5ec2eed14610317578063f7eb94e114610342576100dd565b80637639b8301461023f57806381d5f68414610268578063b1b60de714610293576100dd565b806343cfbd65116100bb57806343cfbd651461018557806344664511146101b057806359f58a88146101d95780637070c17314610216576100dd565b806325a7b45e146100e2578063312222bd1461011f578063397877611461015c575b600080fd5b3480156100ee57600080fd5b50610109600480360381019061010491906129a7565b61037f565b6040516101169190612bf2565b60405180910390f35b34801561012b57600080fd5b50610146600480360381019061014191906129a7565b610692565b6040516101539190612d82565b60405180910390f35b34801561016857600080fd5b50610183600480360381019061017e9190612ed9565b610a73565b005b34801561019157600080fd5b5061019a610b6e565b6040516101a7919061306d565b60405180910390f35b3480156101bc57600080fd5b506101d760048036038101906101d2919061308f565b610c00565b005b3480156101e557600080fd5b5061020060048036038101906101fb91906129a7565b610cf2565b60405161020d91906132b0565b60405180910390f35b34801561022257600080fd5b5061023d600480360381019061023891906132d2565b610faf565b005b34801561024b57600080fd5b5061026660048036038101906102619190612ed9565b6110d3565b005b34801561027457600080fd5b5061027d6111ce565b60405161028a91906133cc565b60405180910390f35b6102ad60048036038101906102a891906129a7565b6111f0565b005b3480156102bb57600080fd5b506102d660048036038101906102d191906129a7565b6121e7565b6040516102e39190613555565b60405180910390f35b3480156102f857600080fd5b506103016125c8565b60405161030e91906133cc565b60405180910390f35b34801561032357600080fd5b5061032c6125d2565b604051610339919061306d565b60405180910390f35b34801561034e57600080fd5b50610369600480360381019061036491906129a7565b612660565b60405161037691906132b0565b60405180910390f35b606060026000838152602001908152602001600020600601805480602002602001604051908101604052809291908181526020016000905b8282101561068757838290600052602060002090600502016040518060a00160405290816000820160009054906101000a900473ffffffffffffffffffffffffffffffffffffffff1673ffffffffffffffffffffffffffffffffffffffff1673ffffffffffffffffffffffffffffffffffffffff168152602001600182018054610440906135a6565b80601f016020809104026020016040519081016040528092919081815260200182805461046c906135a6565b80156104b95780601f1061048e576101008083540402835291602001916104b9565b820191906000526020600020905b81548152906001019060200180831161049c57829003601f168201915b505050505081526020016002820180546104d2906135a6565b80601f01602080910402602001604051908101604052809291908181526020018280546104fe906135a6565b801561054b5780601f106105205761010080835404028352916020019161054b565b820191906000526020600020905b81548152906001019060200180831161052e57829003601f168201915b50505050508152602001600382018054610564906135a6565b80601f0160208091040260200160405190810160405280929190818152602001828054610590906135a6565b80156105dd5780601f106105b2576101008083540402835291602001916105dd565b820191906000526020600020905b8154815290600101906020018083116105c057829003601f168201915b505050505081526020016004820180546105f6906135a6565b80601f0160208091040260200160405190810160405280929190818152602001828054610622906135a6565b801561066f5780601f106106445761010080835404028352916020019161066f565b820191906000526020600020905b81548152906001019060200180831161065257829003601f168201915b505050505081525050815260200190600101906103b7565b505050509050919050565b606060026000838152602001908152602001600020600801805480602002602001604051908101604052809291908181526020016000905b82821015610a6857838290600052602060002090600602016040518060c00160405290816000820180546106fd906135a6565b80601f0160208091040260200160405190810160405280929190818152602001828054610729906135a6565b80156107765780601f1061074b57610100808354040283529160200191610776565b820191906000526020600020905b81548152906001019060200180831161075957829003601f168201915b5050505050815260200160018201805461078f906135a6565b80601f01602080910402602001604051908101604052809291908181526020018280546107bb906135a6565b80156108085780601f106107dd57610100808354040283529160200191610808565b820191906000526020600020905b8154815290600101906020018083116107eb57829003601f168201915b50505050508152602001600282018054610821906135a6565b80601f016020809104026020016040519081016040528092919081815260200182805461084d906135a6565b801561089a5780601f1061086f5761010080835404028352916020019161089a565b820191906000526020600020905b81548152906001019060200180831161087d57829003601f168201915b505050505081526020016003820180546108b3906135a6565b80601f01602080910402602001604051908101604052809291908181526020018280546108df906135a6565b801561092c5780601f106109015761010080835404028352916020019161092c565b820191906000526020600020905b81548152906001019060200180831161090f57829003601f168201915b50505050508152602001600482018054610945906135a6565b80601f0160208091040260200160405190810160405280929190818152602001828054610971906135a6565b80156109be5780601f10610993576101008083540402835291602001916109be565b820191906000526020600020905b8154815290600101906020018083116109a157829003601f168201915b505050505081526020016005820180546109d7906135a6565b80601f0160208091040260200160405190810160405280929190818152602001828054610a03906135a6565b8015610a505780601f10610a2557610100808354040283529160200191610a50565b820191906000526020600020905b815481529060010190602001808311610a3357829003601f168201915b505050505081525050815260200190600101906106ca565b505050509050919050565b600260008881526020019081526020016000206007016040518060c001604052808881526020018781526020018681526020018581526020018481526020018381525090806001815401808255809150506001900390600052602060002090600602016000909190919091506000820151816000019081610af49190613783565b506020820151816001019081610b0a9190613783565b506040820151816002019081610b209190613783565b506060820151816003019081610b369190613783565b506080820151816004019081610b4c9190613783565b5060a0820151816005019081610b629190613783565b50505050505050505050565b606060008054610b7d906135a6565b80601f0160208091040260200160405190810160405280929190818152602001828054610ba9906135a6565b8015610bf65780601f10610bcb57610100808354040283529160200191610bf6565b820191906000526020600020905b815481529060010190602001808311610bd957829003601f168201915b5050505050905090565b6040518060c00160405280868152602001858152602001848152602001838152602001828152602001600180811115610c3c57610c3b61319b565b5b815250600260008881526020019081526020016000206000016000820151816000019081610c6a9190613783565b506020820151816001019081610c809190613783565b506040820151816002019081610c969190613783565b506060820151816003019081610cac9190613783565b506080820151816004015560a08201518160050160006101000a81548160ff02191690836001811115610ce257610ce161319b565b5b0217905550905050505050505050565b610cfa612915565b600260008381526020019081526020016000206000016040518060c0016040529081600082018054610d2b906135a6565b80601f0160208091040260200160405190810160405280929190818152602001828054610d57906135a6565b8015610da45780601f10610d7957610100808354040283529160200191610da4565b820191906000526020600020905b815481529060010190602001808311610d8757829003601f168201915b50505050508152602001600182018054610dbd906135a6565b80601f0160208091040260200160405190810160405280929190818152602001828054610de9906135a6565b8015610e365780601f10610e0b57610100808354040283529160200191610e36565b820191906000526020600020905b815481529060010190602001808311610e1957829003601f168201915b50505050508152602001600282018054610e4f906135a6565b80601f0160208091040260200160405190810160405280929190818152602001828054610e7b906135a6565b8015610ec85780601f10610e9d57610100808354040283529160200191610ec8565b820191906000526020600020905b815481529060010190602001808311610eab57829003601f168201915b50505050508152602001600382018054610ee1906135a6565b80601f0160208091040260200160405190810160405280929190818152602001828054610f0d906135a6565b8015610f5a5780601f10610f2f57610100808354040283529160200191610f5a565b820191906000526020600020905b815481529060010190602001808311610f3d57829003601f168201915b50505050508152602001600482015481526020016005820160009054906101000a900460ff166001811115610f9257610f9161319b565b5b6001811115610fa457610fa361319b565b5b815250509050919050565b600260008681526020019081526020016000206006016040518060a001604052803373ffffffffffffffffffffffffffffffffffffffff16815260200186815260200185815260200184815260200183815250908060018154018082558091505060019003906000526020600020906005020160009091909190915060008201518160000160006101000a81548173ffffffffffffffffffffffffffffffffffffffff021916908373ffffffffffffffffffffffffffffffffffffffff16021790555060208201518160010190816110879190613783565b50604082015181600201908161109d9190613783565b5060608201518160030190816110b39190613783565b5060808201518160040190816110c99190613783565b5050505050505050565b600260008881526020019081526020016000206008016040518060c0016040528088815260200187815260200186815260200185815260200184815260200183815250908060018154018082558091505060019003906000526020600020906006020160009091909190915060008201518160000190816111549190613783565b50602082015181600101908161116a9190613783565b5060408201518160020190816111809190613783565b5060608201518160030190816111969190613783565b5060808201518160040190816111ac9190613783565b5060a08201518160050190816111c29190613783565b50505050505050505050565b6000600160008154809291906111e390613884565b9190505550600154905090565b600060026000838152602001908152602001600020604051806080016040529081600082016040518060c0016040529081600082018054611230906135a6565b80601f016020809104026020016040519081016040528092919081815260200182805461125c906135a6565b80156112a95780601f1061127e576101008083540402835291602001916112a9565b820191906000526020600020905b81548152906001019060200180831161128c57829003601f168201915b505050505081526020016001820180546112c2906135a6565b80601f01602080910402602001604051908101604052809291908181526020018280546112ee906135a6565b801561133b5780601f106113105761010080835404028352916020019161133b565b820191906000526020600020905b81548152906001019060200180831161131e57829003601f168201915b50505050508152602001600282018054611354906135a6565b80601f0160208091040260200160405190810160405280929190818152602001828054611380906135a6565b80156113cd5780601f106113a2576101008083540402835291602001916113cd565b820191906000526020600020905b8154815290600101906020018083116113b057829003601f168201915b505050505081526020016003820180546113e6906135a6565b80601f0160208091040260200160405190810160405280929190818152602001828054611412906135a6565b801561145f5780601f106114345761010080835404028352916020019161145f565b820191906000526020600020905b81548152906001019060200180831161144257829003601f168201915b50505050508152602001600482015481526020016005820160009054906101000a900460ff1660018111156114975761149661319b565b5b60018111156114a9576114a861319b565b5b81525050815260200160068201805480602002602001604051908101604052809291908181526020016000905b828210156117a657838290600052602060002090600502016040518060a00160405290816000820160009054906101000a900473ffffffffffffffffffffffffffffffffffffffff1673ffffffffffffffffffffffffffffffffffffffff1673ffffffffffffffffffffffffffffffffffffffff16815260200160018201805461155f906135a6565b80601f016020809104026020016040519081016040528092919081815260200182805461158b906135a6565b80156115d85780601f106115ad576101008083540402835291602001916115d8565b820191906000526020600020905b8154815290600101906020018083116115bb57829003601f168201915b505050505081526020016002820180546115f1906135a6565b80601f016020809104026020016040519081016040528092919081815260200182805461161d906135a6565b801561166a5780601f1061163f5761010080835404028352916020019161166a565b820191906000526020600020905b81548152906001019060200180831161164d57829003601f168201915b50505050508152602001600382018054611683906135a6565b80601f01602080910402602001604051908101604052809291908181526020018280546116af906135a6565b80156116fc5780601f106116d1576101008083540402835291602001916116fc565b820191906000526020600020905b8154815290600101906020018083116116df57829003601f168201915b50505050508152602001600482018054611715906135a6565b80601f0160208091040260200160405190810160405280929190818152602001828054611741906135a6565b801561178e5780601f106117635761010080835404028352916020019161178e565b820191906000526020600020905b81548152906001019060200180831161177157829003601f168201915b505050505081525050815260200190600101906114d6565b50505050815260200160078201805480602002602001604051908101604052809291908181526020016000905b82821015611b7157838290600052602060002090600602016040518060c0016040529081600082018054611806906135a6565b80601f0160208091040260200160405190810160405280929190818152602001828054611832906135a6565b801561187f5780601f106118545761010080835404028352916020019161187f565b820191906000526020600020905b81548152906001019060200180831161186257829003601f168201915b50505050508152602001600182018054611898906135a6565b80601f01602080910402602001604051908101604052809291908181526020018280546118c4906135a6565b80156119115780601f106118e657610100808354040283529160200191611911565b820191906000526020600020905b8154815290600101906020018083116118f457829003601f168201915b5050505050815260200160028201805461192a906135a6565b80601f0160208091040260200160405190810160405280929190818152602001828054611956906135a6565b80156119a35780601f10611978576101008083540402835291602001916119a3565b820191906000526020600020905b81548152906001019060200180831161198657829003601f168201915b505050505081526020016003820180546119bc906135a6565b80601f01602080910402602001604051908101604052809291908181526020018280546119e8906135a6565b8015611a355780601f10611a0a57610100808354040283529160200191611a35565b820191906000526020600020905b815481529060010190602001808311611a1857829003601f168201915b50505050508152602001600482018054611a4e906135a6565b80601f0160208091040260200160405190810160405280929190818152602001828054611a7a906135a6565b8015611ac75780601f10611a9c57610100808354040283529160200191611ac7565b820191906000526020600020905b815481529060010190602001808311611aaa57829003601f168201915b50505050508152602001600582018054611ae0906135a6565b80601f0160208091040260200160405190810160405280929190818152602001828054611b0c906135a6565b8015611b595780601f10611b2e57610100808354040283529160200191611b59565b820191906000526020600020905b815481529060010190602001808311611b3c57829003601f168201915b505050505081525050815260200190600101906117d3565b50505050815260200160088201805480602002602001604051908101604052809291908181526020016000905b82821015611f3c57838290600052602060002090600602016040518060c0016040529081600082018054611bd1906135a6565b80601f0160208091040260200160405190810160405280929190818152602001828054611bfd906135a6565b8015611c4a5780601f10611c1f57610100808354040283529160200191611c4a565b820191906000526020600020905b815481529060010190602001808311611c2d57829003601f168201915b50505050508152602001600182018054611c63906135a6565b80601f0160208091040260200160405190810160405280929190818152602001828054611c8f906135a6565b8015611cdc5780601f10611cb157610100808354040283529160200191611cdc565b820191906000526020600020905b815481529060010190602001808311611cbf57829003601f168201915b50505050508152602001600282018054611cf5906135a6565b80601f0160208091040260200160405190810160405280929190818152602001828054611d21906135a6565b8015611d6e5780601f10611d4357610100808354040283529160200191611d6e565b820191906000526020600020905b815481529060010190602001808311611d5157829003601f168201915b50505050508152602001600382018054611d87906135a6565b80601f0160208091040260200160405190810160405280929190818152602001828054611db3906135a6565b8015611e005780601f10611dd557610100808354040283529160200191611e00565b820191906000526020600020905b815481529060010190602001808311611de357829003601f168201915b50505050508152602001600482018054611e19906135a6565b80601f0160208091040260200160405190810160405280929190818152602001828054611e45906135a6565b8015611e925780601f10611e6757610100808354040283529160200191611e92565b820191906000526020600020905b815481529060010190602001808311611e7557829003601f168201915b50505050508152602001600582018054611eab906135a6565b80601f0160208091040260200160405190810160405280929190818152602001828054611ed7906135a6565b8015611f245780601f10611ef957610100808354040283529160200191611f24565b820191906000526020600020905b815481529060010190602001808311611f0757829003601f168201915b50505050508152505081526020019060010190611b9e565b505050508152505090506000816020015151905060008260200151600183611f6491906138cc565b81518110611f7557611f74613900565b5b60200260200101516000015190506000600154118015611f9f575060008360000151600001515114155b611fde576040517f08c379a0000000000000000000000000000000000000000000000000000000008152600401611fd59061397b565b60405180910390fd5b826000015160800151341015611ff357600080fd5b6001808111156120065761200561319b565b5b836000015160a0015160018111156120215761202061319b565b5b1461202b57600080fd5b3373ffffffffffffffffffffffffffffffffffffffff168173ffffffffffffffffffffffffffffffffffffffff160361206357600080fd5b6000836000015160a0019060018111156120805761207f61319b565b5b908160018111156120945761209361319b565b5b8152505082600001516002600086815260200190815260200160002060000160008201518160000190816120c89190613783565b5060208201518160010190816120de9190613783565b5060408201518160020190816120f49190613783565b50606082015181600301908161210a9190613783565b506080820151816004015560a08201518160050160006101000a81548160ff021916908360018111156121405761213f61319b565b5b02179055509050508073ffffffffffffffffffffffffffffffffffffffff166108fc349081150290604051600060405180830381858888f1935050505015801561218e573d6000803e3d6000fd5b507f64073d63ed4cfdb2b6aa0b905e6ecbb62914f9273fb4c9f2b51d0f2ce5d59f3d6001548460000151602001518560000151608001513360006040516121d99594939291906139b9565b60405180910390a150505050565b606060026000838152602001908152602001600020600701805480602002602001604051908101604052809291908181526020016000905b828210156125bd57838290600052602060002090600602016040518060c0016040529081600082018054612252906135a6565b80601f016020809104026020016040519081016040528092919081815260200182805461227e906135a6565b80156122cb5780601f106122a0576101008083540402835291602001916122cb565b820191906000526020600020905b8154815290600101906020018083116122ae57829003601f168201915b505050505081526020016001820180546122e4906135a6565b80601f0160208091040260200160405190810160405280929190818152602001828054612310906135a6565b801561235d5780601f106123325761010080835404028352916020019161235d565b820191906000526020600020905b81548152906001019060200180831161234057829003601f168201915b50505050508152602001600282018054612376906135a6565b80601f01602080910402602001604051908101604052809291908181526020018280546123a2906135a6565b80156123ef5780601f106123c4576101008083540402835291602001916123ef565b820191906000526020600020905b8154815290600101906020018083116123d257829003601f168201915b50505050508152602001600382018054612408906135a6565b80601f0160208091040260200160405190810160405280929190818152602001828054612434906135a6565b80156124815780601f1061245657610100808354040283529160200191612481565b820191906000526020600020905b81548152906001019060200180831161246457829003601f168201915b5050505050815260200160048201805461249a906135a6565b80601f01602080910402602001604051908101604052809291908181526020018280546124c6906135a6565b80156125135780601f106124e857610100808354040283529160200191612513565b820191906000526020600020905b8154815290600101906020018083116124f657829003601f168201915b5050505050815260200160058201805461252c906135a6565b80601f0160208091040260200160405190810160405280929190818152602001828054612558906135a6565b80156125a55780601f1061257a576101008083540402835291602001916125a5565b820191906000526020600020905b81548152906001019060200180831161258857829003601f168201915b5050505050815250508152602001906001019061221f565b505050509050919050565b6000600154905090565b600080546125df906135a6565b80601f016020809104026020016040519081016040528092919081815260200182805461260b906135a6565b80156126585780601f1061262d57610100808354040283529160200191612658565b820191906000526020600020905b81548152906001019060200180831161263b57829003601f168201915b505050505081565b6002602052806000526040600020600091509050806000016040518060c0016040529081600082018054612693906135a6565b80601f01602080910402602001604051908101604052809291908181526020018280546126bf906135a6565b801561270c5780601f106126e15761010080835404028352916020019161270c565b820191906000526020600020905b8154815290600101906020018083116126ef57829003601f168201915b50505050508152602001600182018054612725906135a6565b80601f0160208091040260200160405190810160405280929190818152602001828054612751906135a6565b801561279e5780601f106127735761010080835404028352916020019161279e565b820191906000526020600020905b81548152906001019060200180831161278157829003601f168201915b505050505081526020016002820180546127b7906135a6565b80601f01602080910402602001604051908101604052809291908181526020018280546127e3906135a6565b80156128305780601f1061280557610100808354040283529160200191612830565b820191906000526020600020905b81548152906001019060200180831161281357829003601f168201915b50505050508152602001600382018054612849906135a6565b80601f0160208091040260200160405190810160405280929190818152602001828054612875906135a6565b80156128c25780601f10612897576101008083540402835291602001916128c2565b820191906000526020600020905b8154815290600101906020018083116128a557829003601f168201915b50505050508152602001600482015481526020016005820160009054906101000a900460ff1660018111156128fa576128f961319b565b5b600181111561290c5761290b61319b565b5b81525050905081565b6040518060c001604052806060815260200160608152602001606081526020016060815260200160008152602001600060018111156129575761295661319b565b5b81525090565b6000604051905090565b600080fd5b600080fd5b6000819050919050565b61298481612971565b811461298f57600080fd5b50565b6000813590506129a18161297b565b92915050565b6000602082840312156129bd576129bc612967565b5b60006129cb84828501612992565b91505092915050565b600081519050919050565b600082825260208201905092915050565b6000819050602082019050919050565b600073ffffffffffffffffffffffffffffffffffffffff82169050919050565b6000612a2b82612a00565b9050919050565b612a3b81612a20565b82525050565b600081519050919050565b600082825260208201905092915050565b60005b83811015612a7b578082015181840152602081019050612a60565b60008484015250505050565b6000601f19601f8301169050919050565b6000612aa382612a41565b612aad8185612a4c565b9350612abd818560208601612a5d565b612ac681612a87565b840191505092915050565b600060a083016000830151612ae96000860182612a32565b5060208301518482036020860152612b018282612a98565b91505060408301518482036040860152612b1b8282612a98565b91505060608301518482036060860152612b358282612a98565b91505060808301518482036080860152612b4f8282612a98565b9150508091505092915050565b6000612b688383612ad1565b905092915050565b6000602082019050919050565b6000612b88826129d4565b612b9281856129df565b935083602082028501612ba4856129f0565b8060005b85811015612be05784840389528151612bc18582612b5c565b9450612bcc83612b70565b925060208a01995050600181019050612ba8565b50829750879550505050505092915050565b60006020820190508181036000830152612c0c8184612b7d565b905092915050565b600081519050919050565b600082825260208201905092915050565b6000819050602082019050919050565b600060c0830160008301518482036000860152612c5d8282612a98565b91505060208301518482036020860152612c778282612a98565b91505060408301518482036040860152612c918282612a98565b91505060608301518482036060860152612cab8282612a98565b91505060808301518482036080860152612cc58282612a98565b91505060a083015184820360a0860152612cdf8282612a98565b9150508091505092915050565b6000612cf88383612c40565b905092915050565b6000602082019050919050565b6000612d1882612c14565b612d228185612c1f565b935083602082028501612d3485612c30565b8060005b85811015612d705784840389528151612d518582612cec565b9450612d5c83612d00565b925060208a01995050600181019050612d38565b50829750879550505050505092915050565b60006020820190508181036000830152612d9c8184612d0d565b905092915050565b600080fd5b600080fd5b7f4e487b7100000000000000000000000000000000000000000000000000000000600052604160045260246000fd5b612de682612a87565b810181811067ffffffffffffffff82111715612e0557612e04612dae565b5b80604052505050565b6000612e1861295d565b9050612e248282612ddd565b919050565b600067ffffffffffffffff821115612e4457612e43612dae565b5b612e4d82612a87565b9050602081019050919050565b82818337600083830152505050565b6000612e7c612e7784612e29565b612e0e565b905082815260208101848484011115612e9857612e97612da9565b5b612ea3848285612e5a565b509392505050565b600082601f830112612ec057612ebf612da4565b5b8135612ed0848260208601612e69565b91505092915050565b600080600080600080600060e0888a031215612ef857612ef7612967565b5b6000612f068a828b01612992565b975050602088013567ffffffffffffffff811115612f2757612f2661296c565b5b612f338a828b01612eab565b965050604088013567ffffffffffffffff811115612f5457612f5361296c565b5b612f608a828b01612eab565b955050606088013567ffffffffffffffff811115612f8157612f8061296c565b5b612f8d8a828b01612eab565b945050608088013567ffffffffffffffff811115612fae57612fad61296c565b5b612fba8a828b01612eab565b93505060a088013567ffffffffffffffff811115612fdb57612fda61296c565b5b612fe78a828b01612eab565b92505060c088013567ffffffffffffffff8111156130085761300761296c565b5b6130148a828b01612eab565b91505092959891949750929550565b600082825260208201905092915050565b600061303f82612a41565b6130498185613023565b9350613059818560208601612a5d565b61306281612a87565b840191505092915050565b600060208201905081810360008301526130878184613034565b905092915050565b60008060008060008060c087890312156130ac576130ab612967565b5b60006130ba89828a01612992565b965050602087013567ffffffffffffffff8111156130db576130da61296c565b5b6130e789828a01612eab565b955050604087013567ffffffffffffffff8111156131085761310761296c565b5b61311489828a01612eab565b945050606087013567ffffffffffffffff8111156131355761313461296c565b5b61314189828a01612eab565b935050608087013567ffffffffffffffff8111156131625761316161296c565b5b61316e89828a01612eab565b92505060a061317f89828a01612992565b9150509295509295509295565b61319581612971565b82525050565b7f4e487b7100000000000000000000000000000000000000000000000000000000600052602160045260246000fd5b600281106131db576131da61319b565b5b50565b60008190506131ec826131ca565b919050565b60006131fc826131de565b9050919050565b61320c816131f1565b82525050565b600060c083016000830151848203600086015261322f8282612a98565b915050602083015184820360208601526132498282612a98565b915050604083015184820360408601526132638282612a98565b9150506060830151848203606086015261327d8282612a98565b9150506080830151613292608086018261318c565b5060a08301516132a560a0860182613203565b508091505092915050565b600060208201905081810360008301526132ca8184613212565b905092915050565b600080600080600060a086880312156132ee576132ed612967565b5b60006132fc88828901612992565b955050602086013567ffffffffffffffff81111561331d5761331c61296c565b5b61332988828901612eab565b945050604086013567ffffffffffffffff81111561334a5761334961296c565b5b61335688828901612eab565b935050606086013567ffffffffffffffff8111156133775761337661296c565b5b61338388828901612eab565b925050608086013567ffffffffffffffff8111156133a4576133a361296c565b5b6133b088828901612eab565b9150509295509295909350565b6133c681612971565b82525050565b60006020820190506133e160008301846133bd565b92915050565b600081519050919050565b600082825260208201905092915050565b6000819050602082019050919050565b600060c08301600083015184820360008601526134308282612a98565b9150506020830151848203602086015261344a8282612a98565b915050604083015184820360408601526134648282612a98565b9150506060830151848203606086015261347e8282612a98565b915050608083015184820360808601526134988282612a98565b91505060a083015184820360a08601526134b28282612a98565b9150508091505092915050565b60006134cb8383613413565b905092915050565b6000602082019050919050565b60006134eb826133e7565b6134f581856133f2565b93508360208202850161350785613403565b8060005b85811015613543578484038952815161352485826134bf565b945061352f836134d3565b925060208a0199505060018101905061350b565b50829750879550505050505092915050565b6000602082019050818103600083015261356f81846134e0565b905092915050565b7f4e487b7100000000000000000000000000000000000000000000000000000000600052602260045260246000fd5b600060028204905060018216806135be57607f821691505b6020821081036135d1576135d0613577565b5b50919050565b60008190508160005260206000209050919050565b60006020601f8301049050919050565b600082821b905092915050565b6000600883026136397fffffffffffffffffffffffffffffffffffffffffffffffffffffffffffffffff826135fc565b61364386836135fc565b95508019841693508086168417925050509392505050565b6000819050919050565b600061368061367b61367684612971565b61365b565b612971565b9050919050565b6000819050919050565b61369a83613665565b6136ae6136a682613687565b848454613609565b825550505050565b600090565b6136c36136b6565b6136ce818484613691565b505050565b5b818110156136f2576136e76000826136bb565b6001810190506136d4565b5050565b601f82111561373757613708816135d7565b613711846135ec565b81016020851015613720578190505b61373461372c856135ec565b8301826136d3565b50505b505050565b600082821c905092915050565b600061375a6000198460080261373c565b1980831691505092915050565b60006137738383613749565b9150826002028217905092915050565b61378c82612a41565b67ffffffffffffffff8111156137a5576137a4612dae565b5b6137af82546135a6565b6137ba8282856136f6565b600060209050601f8311600181146137ed57600084156137db578287015190505b6137e58582613767565b86555061384d565b601f1984166137fb866135d7565b60005b82811015613823578489015182556001820191506020850194506020810190506137fe565b86831015613840578489015161383c601f891682613749565b8355505b6001600288020188555050505b505050505050565b7f4e487b7100000000000000000000000000000000000000000000000000000000600052601160045260246000fd5b600061388f82612971565b91507fffffffffffffffffffffffffffffffffffffffffffffffffffffffffffffffff82036138c1576138c0613855565b5b600182019050919050565b60006138d782612971565b91506138e283612971565b92508282039050818111156138fa576138f9613855565b5b92915050565b7f4e487b7100000000000000000000000000000000000000000000000000000000600052603260045260246000fd5b7f4865616c7468202049642063616e6e6f7420626520656d707479000000000000600082015250565b6000613965601a83613023565b91506139708261392f565b602082019050919050565b6000602082019050818103600083015261399481613958565b9050919050565b6139a481612a20565b82525050565b6139b3816131f1565b82525050565b600060a0820190506139ce60008301886133bd565b81810360208301526139e08187613034565b90506139ef60408301866133bd565b6139fc606083018561399b565b613a0960808301846139aa565b969550505050505056fea2646970667358221220fdff57b467972553fa7833906f29b370e106045131a8d0d89f1bfd2bd856551464736f6c63430008130033",
  "immutableReferences": {},
  "source": "// SPDX-License-Identifier: MIT\r\npragma solidity ^0.8.19;\r\n\r\ncontract HealthSync {\r\n    enum HealthStatus {Sold, Available}\r\n    \r\n    string public companyName;\r\n    uint HealthCount;\r\n\r\n    // Constructor code is only run when the contract is created\r\n    constructor() {\r\n        HealthCount=0;\r\n        companyName = \"HealthSync\";\r\n    }\r\n\r\n    //declare the structure of the Health  data\r\n   struct HealthInformation {\r\n        string id;\r\n        string name;\r\n        string gender;\r\n        string dateOfBirth;\r\n        uint price;\r\n        HealthStatus status;\r\n    }\r\n\r\n    //declare the structure for the owner data\r\n    struct OwnershipRecord {\r\n        address payable ownerId;\r\n        string ownerName;\r\n        string transferDate;\r\n        string phone;\r\n        string email;  \r\n    } \r\n\r\n    // declare the structure for the vaccination record\r\n    struct VaccinationRecord {\r\n        string vaccineName;\r\n        string dateAdministered;\r\n        string doctorname;\r\n        string clinic;\r\n        string phone;\r\n        string email;\r\n    }\r\n\r\n    // declare the structure of the training record\r\n    struct TrainingRecord {\r\n        string trainingType;\r\n        string traninerName;\r\n        string organization;\r\n        string phone;\r\n        string trainingDate;\r\n        string progress;\r\n    }\r\n\r\n    //declare the structure for the Health information - \r\n    //which consists of HealthCount, ownership, vaccination and trainingrecord\r\n    struct Health {\r\n        HealthInformation HealthInfo;\r\n        OwnershipRecord[] ownershipRecords;\r\n        VaccinationRecord[] vaccinationHistory;\r\n        TrainingRecord[] trainingHistory;\r\n    }\r\n    //map the Health  id to the Health  structure and hold them in the mapping variable Health \r\n    mapping(uint256 => Health) public Healths;\r\n\r\n    //write the getter functions\r\n    // function to get the company name getCompanyName() \r\n    function getCompanyName() public view returns(string memory){\r\n        return companyName;\r\n    }\r\n\r\n    //Write a function getNoOfHealth  to obtain the HealthCount\r\n    function getNoOfHealth() public view returns (uint) {\r\n        return HealthCount;\r\n    }\r\n\r\n     // Function to retrieve Health   information\r\n    function getHealthInfo(uint256 HealthId) public view returns (HealthInformation memory) {\r\n        return Healths[HealthId].HealthInfo;\r\n    }\r\n\r\n     // Function to retrieve ownership records\r\n    function getOwnershipRecords(uint256 HealthId) public view returns (OwnershipRecord[] memory) {\r\n        return Healths[HealthId].ownershipRecords;\r\n    }\r\n\r\n    // Function to retrieve vaccination records\r\n    function getVaccinationRecords(uint256 HealthId) public view returns (VaccinationRecord[] memory) {\r\n        return Healths[HealthId].vaccinationHistory;\r\n    }\r\n\r\n    // Function to retrieve training records\r\n    function getTrainingRecords(uint256 HealthId) public view returns (TrainingRecord[] memory) {\r\n        return Healths[HealthId].trainingHistory;\r\n    }\r\n\r\n    //function to register the Health \r\n    function registerHealth () public returns (uint256) {\r\n        HealthCount++;    \r\n        return HealthCount;\r\n    }\r\n\r\n          \r\n    // Function to add Health   information\r\n    function addHealthInfo(\r\n        uint256 HealthId,\r\n        string memory _id,\r\n        string memory _name,\r\n        string memory _gender,\r\n        string memory _dateOfBirth,\r\n        uint price\r\n    ) public {\r\n        Healths[HealthId].HealthInfo = HealthInformation(_id, _name, _gender, _dateOfBirth, price, HealthStatus.Available);\r\n    }\r\n\r\n      \r\n    // Function to add a new ownership record\r\n    function addOwnerShipRecord (uint256 HealthId, \r\n        string memory _ownerName,\r\n        string memory _transferDate,\r\n        string memory _phone,\r\n        string memory _email ) public {\r\n            Healths[HealthId].ownershipRecords.push(OwnershipRecord(payable(msg.sender), _ownerName, _transferDate, _phone, _email));\r\n           \r\n    }\r\n\r\n    function addVaccinationRecord (uint256 HealthId, \r\n        string memory _vaccineName,\r\n        string memory _dateAdministered,\r\n        string memory _doctorname,\r\n        string memory _clinic,\r\n        string memory _phone,\r\n        string memory _email) public {\r\n            Healths[HealthId].vaccinationHistory.push(VaccinationRecord(_vaccineName, _dateAdministered, _doctorname, _clinic, _phone, _email));\r\n    }\r\n\r\n    function addTrainingRecord (uint256 HealthId, \r\n         string memory _trainingType,\r\n        string memory _trainerName,\r\n        string memory _organization,\r\n        string memory _phone,\r\n        string memory _trainingDate,\r\n        string memory _progress) public {\r\n            Healths[HealthId].trainingHistory.push(TrainingRecord(_trainingType, _trainerName, _organization, _phone,\r\n        _trainingDate, _progress));\r\n    }\r\n\r\n\r\n      //create the event to purchase the Health \r\n    event HealthPurchased(\r\n        uint id,\r\n        string name,\r\n        uint price,\r\n        address payable owner,\r\n        HealthStatus status\r\n    );\r\n\r\n\r\n   //add a function to purchase Health  with the Health  id\r\n    function purchaseHealth(uint _id) public payable {\r\n        // Fetch the product\r\n        Health memory HealthData = Healths[_id];\r\n        // Fetch the owner\r\n        uint256 curOwnerId = HealthData.ownershipRecords.length;\r\n        address payable seller = HealthData.ownershipRecords[curOwnerId-1].ownerId;\r\n        // Make sure the product has a valid id\r\n        require(HealthCount > 0 && bytes(HealthData.HealthInfo.id).length != 0, \"Health  Id cannot be empty\" );\r\n        // Require that there is enough Ether in the transaction\r\n        require(msg.value >= HealthData.HealthInfo.price);\r\n        // Require that the product has not been purchased already\r\n        require(HealthData.HealthInfo.status == HealthStatus.Available);\r\n        // Require that the buyer is not the seller\r\n        require(seller != msg.sender);\r\n        // Transfer ownership to the buyer\r\n        //HealthData.ownershipRecords[curOwnerId ++].ownerId = payable(msg.sender);\r\n        // Mark as purchased\r\n        HealthData.HealthInfo.status = HealthStatus.Sold;\r\n        // Update the Health  information\r\n        Healths[_id].HealthInfo = HealthData.HealthInfo;\r\n        // Pay the seller by sending them Ether\r\n        payable(seller).transfer(msg.value);\r\n        // Trigger an event\r\n        emit HealthPurchased(HealthCount, HealthData.HealthInfo.name, HealthData.HealthInfo.price, payable(msg.sender), HealthStatus.Sold);\r\n    }\r\n}",
  "sourcePath": "C:\\Users\\23001852\\Downloads\\HealthSync latest\\contracts\\HealthSync.sol",
  "compiler": {
    "name": "solc",
    "version": "0.8.19+commit.7dd6d404.Emscripten.clang"
  },
  "schemaVersion": "3.4.16",
  "updatedAt": "2025-02-11T02:04:01.240Z",
  "devdoc": {
    "kind": "dev",
    "methods": {},
    "version": 1
  },
  "userdoc": {
    "kind": "user",
    "methods": {},
    "version": 1
  }
}